{
  "_format": "hh-sol-artifact-1",
  "contractName": "Auction",
  "sourceName": "contracts/Auction.sol",
  "abi": [
    {
      "inputs": [
        {
          "internalType": "uint256",
          "name": "_numberOfHours",
          "type": "uint256"
        },
        {
          "internalType": "uint256",
          "name": "_nftId",
          "type": "uint256"
        },
        {
          "internalType": "contract IERC20",
          "name": "_token",
          "type": "address"
        },
        {
          "internalType": "contract IERC721",
          "name": "_nft",
          "type": "address"
        }
      ],
      "stateMutability": "nonpayable",
      "type": "constructor"
    },
    {
      "anonymous": false,
      "inputs": [
        {
          "indexed": true,
          "internalType": "address",
          "name": "previousOwner",
          "type": "address"
        },
        {
          "indexed": true,
          "internalType": "address",
          "name": "newOwner",
          "type": "address"
        }
      ],
      "name": "OwnershipTransferred",
      "type": "event"
    },
    {
      "anonymous": false,
      "inputs": [
        {
          "indexed": false,
          "internalType": "address",
          "name": "recipient",
          "type": "address"
        },
        {
          "indexed": false,
          "internalType": "contract IERC20",
          "name": "token",
          "type": "address"
        },
        {
          "indexed": false,
          "internalType": "uint256",
          "name": "amount",
          "type": "uint256"
        }
      ],
      "name": "auctionEnded",
      "type": "event"
    },
    {
      "anonymous": false,
      "inputs": [],
      "name": "auctionStarted",
      "type": "event"
    },
    {
      "anonymous": false,
      "inputs": [
        {
          "indexed": false,
          "internalType": "address",
          "name": "bidder",
          "type": "address"
        },
        {
          "indexed": false,
          "internalType": "uint256",
          "name": "amount",
          "type": "uint256"
        }
      ],
      "name": "bidMade",
      "type": "event"
    },
    {
      "inputs": [
        {
          "internalType": "uint256",
          "name": "amount",
          "type": "uint256"
        }
      ],
      "name": "bid",
      "outputs": [],
      "stateMutability": "payable",
      "type": "function"
    },
    {
      "inputs": [],
      "name": "contractOwner",
      "outputs": [
        {
          "internalType": "address",
          "name": "",
          "type": "address"
        }
      ],
      "stateMutability": "view",
      "type": "function"
    },
    {
      "inputs": [],
      "name": "finalizeAuction",
      "outputs": [],
      "stateMutability": "nonpayable",
      "type": "function"
    },
    {
      "inputs": [],
      "name": "nft",
      "outputs": [
        {
          "internalType": "contract IERC721",
          "name": "",
          "type": "address"
        }
      ],
      "stateMutability": "view",
      "type": "function"
    },
    {
      "inputs": [],
      "name": "nftId",
      "outputs": [
        {
          "internalType": "uint256",
          "name": "",
          "type": "uint256"
        }
      ],
      "stateMutability": "view",
      "type": "function"
    },
    {
      "inputs": [],
      "name": "numberOfHours",
      "outputs": [
        {
          "internalType": "uint256",
          "name": "",
          "type": "uint256"
        }
      ],
      "stateMutability": "view",
      "type": "function"
    },
    {
      "inputs": [],
      "name": "owner",
      "outputs": [
        {
          "internalType": "address",
          "name": "",
          "type": "address"
        }
      ],
      "stateMutability": "view",
      "type": "function"
    },
    {
      "inputs": [],
      "name": "renounceOwnership",
      "outputs": [],
      "stateMutability": "nonpayable",
      "type": "function"
    },
    {
      "inputs": [],
      "name": "startAuction",
      "outputs": [],
      "stateMutability": "nonpayable",
      "type": "function"
    },
    {
      "inputs": [],
      "name": "token",
      "outputs": [
        {
          "internalType": "contract IERC20",
          "name": "",
          "type": "address"
        }
      ],
      "stateMutability": "view",
      "type": "function"
    },
    {
      "inputs": [],
      "name": "topBidAmount",
      "outputs": [
        {
          "internalType": "uint256",
          "name": "",
          "type": "uint256"
        }
      ],
      "stateMutability": "view",
      "type": "function"
    },
    {
      "inputs": [],
      "name": "topBidder",
      "outputs": [
        {
          "internalType": "address",
          "name": "",
          "type": "address"
        }
      ],
      "stateMutability": "view",
      "type": "function"
    },
    {
      "inputs": [
        {
          "internalType": "address",
          "name": "newOwner",
          "type": "address"
        }
      ],
      "name": "transferOwnership",
      "outputs": [],
      "stateMutability": "nonpayable",
      "type": "function"
    }
  ],
  "bytecode": "0x60806040523480156200001157600080fd5b5060405162001a7b38038062001a7b8339818101604052810190620000379190620003fb565b620000576200004b6200023160201b60201c565b6200023960201b60201c565b3373ffffffffffffffffffffffffffffffffffffffff168173ffffffffffffffffffffffffffffffffffffffff16636352211e856040518263ffffffff1660e01b8152600401620000a991906200047e565b60206040518083038186803b158015620000c257600080fd5b505afa158015620000d7573d6000803e3d6000fd5b505050506040513d601f19601f82011682018060405250810190620000fd9190620004cc565b73ffffffffffffffffffffffffffffffffffffffff161462000156576040517f08c379a00000000000000000000000000000000000000000000000000000000081526004016200014d9062000585565b60405180910390fd5b8360098190555081600660006101000a81548173ffffffffffffffffffffffffffffffffffffffff021916908373ffffffffffffffffffffffffffffffffffffffff16021790555080600760006101000a81548173ffffffffffffffffffffffffffffffffffffffff021916908373ffffffffffffffffffffffffffffffffffffffff1602179055508260088190555033600a60006101000a81548173ffffffffffffffffffffffffffffffffffffffff021916908373ffffffffffffffffffffffffffffffffffffffff16021790555050505050620005a7565b600033905090565b60008060009054906101000a900473ffffffffffffffffffffffffffffffffffffffff169050816000806101000a81548173ffffffffffffffffffffffffffffffffffffffff021916908373ffffffffffffffffffffffffffffffffffffffff1602179055508173ffffffffffffffffffffffffffffffffffffffff168173ffffffffffffffffffffffffffffffffffffffff167f8be0079c531659141344cd1fd0a4f28419497f9722a3daafe3b4186f6b6457e060405160405180910390a35050565b600080fd5b6000819050919050565b620003178162000302565b81146200032357600080fd5b50565b60008151905062000337816200030c565b92915050565b600073ffffffffffffffffffffffffffffffffffffffff82169050919050565b60006200036a826200033d565b9050919050565b60006200037e826200035d565b9050919050565b620003908162000371565b81146200039c57600080fd5b50565b600081519050620003b08162000385565b92915050565b6000620003c3826200035d565b9050919050565b620003d581620003b6565b8114620003e157600080fd5b50565b600081519050620003f581620003ca565b92915050565b60008060008060808587031215620004185762000417620002fd565b5b6000620004288782880162000326565b94505060206200043b8782880162000326565b93505060406200044e878288016200039f565b92505060606200046187828801620003e4565b91505092959194509250565b620004788162000302565b82525050565b60006020820190506200049560008301846200046d565b92915050565b620004a6816200035d565b8114620004b257600080fd5b50565b600081519050620004c6816200049b565b92915050565b600060208284031215620004e557620004e4620002fd565b5b6000620004f584828501620004b5565b91505092915050565b600082825260208201905092915050565b7f636f6e7472616374206465706c6f79657220646f65736e27742061637475616c60008201527f6c79206f776e20746865204e4654000000000000000000000000000000000000602082015250565b60006200056d602e83620004fe565b91506200057a826200050f565b604082019050919050565b60006020820190508181036000830152620005a0816200055e565b9050919050565b6114c480620005b76000396000f3fe6080604052600436106100c25760003560e01c80638da5cb5b1161007f578063ce606ee011610059578063ce606ee014610213578063f2fde38b1461023e578063f77282ab14610267578063fc0c546a1461027e576100c2565b80638da5cb5b14610192578063ac51c1d6146101bd578063c6bc5182146101e8576100c2565b806301333f06146100c75780633b01dbf2146100f2578063454a2ab31461011d57806347ccca02146101395780636b64c76914610164578063715018a61461017b575b600080fd5b3480156100d357600080fd5b506100dc6102a9565b6040516100e99190610c17565b60405180910390f35b3480156100fe57600080fd5b506101076102cf565b6040516101149190610c4b565b60405180910390f35b61013760048036038101906101329190610c97565b6102d5565b005b34801561014557600080fd5b5061014e610609565b60405161015b9190610d23565b60405180910390f35b34801561017057600080fd5b5061017961062f565b005b34801561018757600080fd5b5061019061068f565b005b34801561019e57600080fd5b506101a76106a3565b6040516101b49190610c17565b60405180910390f35b3480156101c957600080fd5b506101d26106cc565b6040516101df9190610c4b565b60405180910390f35b3480156101f457600080fd5b506101fd6106d2565b60405161020a9190610c4b565b60405180910390f35b34801561021f57600080fd5b506102286106d8565b6040516102359190610c17565b60405180910390f35b34801561024a57600080fd5b5061026560048036038101906102609190610d6a565b6106fe565b005b34801561027357600080fd5b5061027c610782565b005b34801561028a57600080fd5b50610293610a66565b6040516102a09190610db8565b60405180910390f35b600460009054906101000a900473ffffffffffffffffffffffffffffffffffffffff1681565b60095481565b60006002541161031a576040517f08c379a000000000000000000000000000000000000000000000000000000000815260040161031190610e30565b60405180910390fd5b42600254101561035f576040517f08c379a000000000000000000000000000000000000000000000000000000000815260040161035690610e9c565b60405180910390fd5b8080600660009054906101000a900473ffffffffffffffffffffffffffffffffffffffff1673ffffffffffffffffffffffffffffffffffffffff166370a08231336040518263ffffffff1660e01b81526004016103bc9190610c17565b60206040518083038186803b1580156103d457600080fd5b505afa1580156103e8573d6000803e3d6000fd5b505050506040513d601f19601f8201168201806040525081019061040c9190610ed1565b101561044d576040517f08c379a000000000000000000000000000000000000000000000000000000000815260040161044490610f70565b60405180910390fd5b8180600660009054906101000a900473ffffffffffffffffffffffffffffffffffffffff1673ffffffffffffffffffffffffffffffffffffffff1663dd62ed3e33306040518363ffffffff1660e01b81526004016104ac929190610f90565b60206040518083038186803b1580156104c457600080fd5b505afa1580156104d8573d6000803e3d6000fd5b505050506040513d601f19601f820116820180604052508101906104fc9190610ed1565b101561053d576040517f08c379a00000000000000000000000000000000000000000000000000000000081526004016105349061102b565b60405180910390fd5b826005548111610582576040517f08c379a0000000000000000000000000000000000000000000000000000000008152600401610579906110bd565b60405180910390fd5b8360058190555033600460006101000a81548173ffffffffffffffffffffffffffffffffffffffff021916908373ffffffffffffffffffffffffffffffffffffffff1602179055507f2a694dae18c24413ef23e79cfcd3b56f2bc353ba85b7d24c14714eaf11e9d60833856040516105fb9291906110dd565b60405180910390a150505050565b600760009054906101000a900473ffffffffffffffffffffffffffffffffffffffff1681565b610637610a8c565b42600181905550610e1060095461064e9190611135565b60015461065b919061118f565b6002819055507fee2679bc2382e067cc3dfbda872852b5b1702b359c1fd6ce272c32dae5bacabf60405160405180910390a1565b610697610a8c565b6106a16000610b0a565b565b60008060009054906101000a900473ffffffffffffffffffffffffffffffffffffffff16905090565b60055481565b60085481565b600a60009054906101000a900473ffffffffffffffffffffffffffffffffffffffff1681565b610706610a8c565b600073ffffffffffffffffffffffffffffffffffffffff168173ffffffffffffffffffffffffffffffffffffffff161415610776576040517f08c379a000000000000000000000000000000000000000000000000000000000815260040161076d90611257565b60405180910390fd5b61077f81610b0a565b50565b61078a610a8c565b6000600254116107cf576040517f08c379a00000000000000000000000000000000000000000000000000000000081526004016107c690610e30565b60405180910390fd5b600254421015610814576040517f08c379a000000000000000000000000000000000000000000000000000000000815260040161080b906112c3565b60405180910390fd5b6000600660009054906101000a900473ffffffffffffffffffffffffffffffffffffffff1673ffffffffffffffffffffffffffffffffffffffff166323b872dd600460009054906101000a900473ffffffffffffffffffffffffffffffffffffffff16336005546040518463ffffffff1660e01b8152600401610899939291906112e3565b602060405180830381600087803b1580156108b357600080fd5b505af11580156108c7573d6000803e3d6000fd5b505050506040513d601f19601f820116820180604052508101906108eb9190611352565b90508061092d576040517f08c379a0000000000000000000000000000000000000000000000000000000008152600401610924906113cb565b60405180910390fd5b600760009054906101000a900473ffffffffffffffffffffffffffffffffffffffff1673ffffffffffffffffffffffffffffffffffffffff166342842e0e33600460009054906101000a900473ffffffffffffffffffffffffffffffffffffffff166008546040518463ffffffff1660e01b81526004016109b0939291906112e3565b600060405180830381600087803b1580156109ca57600080fd5b505af11580156109de573d6000803e3d6000fd5b505050507fcdd1f4734a514814ea6c69c59817de7541491a3efaff1b2d693b416dbe5a4086600460009054906101000a900473ffffffffffffffffffffffffffffffffffffffff16600660009054906101000a900473ffffffffffffffffffffffffffffffffffffffff16600554604051610a5b939291906113eb565b60405180910390a150565b600660009054906101000a900473ffffffffffffffffffffffffffffffffffffffff1681565b610a94610bce565b73ffffffffffffffffffffffffffffffffffffffff16610ab26106a3565b73ffffffffffffffffffffffffffffffffffffffff1614610b08576040517f08c379a0000000000000000000000000000000000000000000000000000000008152600401610aff9061146e565b60405180910390fd5b565b60008060009054906101000a900473ffffffffffffffffffffffffffffffffffffffff169050816000806101000a81548173ffffffffffffffffffffffffffffffffffffffff021916908373ffffffffffffffffffffffffffffffffffffffff1602179055508173ffffffffffffffffffffffffffffffffffffffff168173ffffffffffffffffffffffffffffffffffffffff167f8be0079c531659141344cd1fd0a4f28419497f9722a3daafe3b4186f6b6457e060405160405180910390a35050565b600033905090565b600073ffffffffffffffffffffffffffffffffffffffff82169050919050565b6000610c0182610bd6565b9050919050565b610c1181610bf6565b82525050565b6000602082019050610c2c6000830184610c08565b92915050565b6000819050919050565b610c4581610c32565b82525050565b6000602082019050610c606000830184610c3c565b92915050565b600080fd5b610c7481610c32565b8114610c7f57600080fd5b50565b600081359050610c9181610c6b565b92915050565b600060208284031215610cad57610cac610c66565b5b6000610cbb84828501610c82565b91505092915050565b6000819050919050565b6000610ce9610ce4610cdf84610bd6565b610cc4565b610bd6565b9050919050565b6000610cfb82610cce565b9050919050565b6000610d0d82610cf0565b9050919050565b610d1d81610d02565b82525050565b6000602082019050610d386000830184610d14565b92915050565b610d4781610bf6565b8114610d5257600080fd5b50565b600081359050610d6481610d3e565b92915050565b600060208284031215610d8057610d7f610c66565b5b6000610d8e84828501610d55565b91505092915050565b6000610da282610cf0565b9050919050565b610db281610d97565b82525050565b6000602082019050610dcd6000830184610da9565b92915050565b600082825260208201905092915050565b7f5468652061756374696f6e206861736e27742073746172746564207965742100600082015250565b6000610e1a601f83610dd3565b9150610e2582610de4565b602082019050919050565b60006020820190508181036000830152610e4981610e0d565b9050919050565b7f5468652061756374696f6e2068617320656e6465642100000000000000000000600082015250565b6000610e86601683610dd3565b9150610e9182610e50565b602082019050919050565b60006020820190508181036000830152610eb581610e79565b9050919050565b600081519050610ecb81610c6b565b92915050565b600060208284031215610ee757610ee6610c66565b5b6000610ef584828501610ebc565b91505092915050565b7f6d73672e73656e64657220646f6573206e6f74206861766520656e6f7567682060008201527f746f6b656e7320746f206269642074686174206d756368210000000000000000602082015250565b6000610f5a603883610dd3565b9150610f6582610efe565b604082019050919050565b60006020820190508181036000830152610f8981610f4d565b9050919050565b6000604082019050610fa56000830185610c08565b610fb26020830184610c08565b9392505050565b7f6d73672e73656e646572206973206e6f7420617070726f76656420746f20737060008201527f656e642074686174206d616e7920746f6b656e73210000000000000000000000602082015250565b6000611015603583610dd3565b915061102082610fb9565b604082019050919050565b6000602082019050818103600083015261104481611008565b9050919050565b7f596f75206e65656420746f2062696420686967686572207468616e207468652060008201527f63757272656e7420686967682062696421000000000000000000000000000000602082015250565b60006110a7603183610dd3565b91506110b28261104b565b604082019050919050565b600060208201905081810360008301526110d68161109a565b9050919050565b60006040820190506110f26000830185610c08565b6110ff6020830184610c3c565b9392505050565b7f4e487b7100000000000000000000000000000000000000000000000000000000600052601160045260246000fd5b600061114082610c32565b915061114b83610c32565b9250817fffffffffffffffffffffffffffffffffffffffffffffffffffffffffffffffff048311821515161561118457611183611106565b5b828202905092915050565b600061119a82610c32565b91506111a583610c32565b9250827fffffffffffffffffffffffffffffffffffffffffffffffffffffffffffffffff038211156111da576111d9611106565b5b828201905092915050565b7f4f776e61626c653a206e6577206f776e657220697320746865207a65726f206160008201527f6464726573730000000000000000000000000000000000000000000000000000602082015250565b6000611241602683610dd3565b915061124c826111e5565b604082019050919050565b6000602082019050818103600083015261127081611234565b9050919050565b7f7468652061756374696f6e2069736e2774206f76657220796574210000000000600082015250565b60006112ad601b83610dd3565b91506112b882611277565b602082019050919050565b600060208201905081810360008301526112dc816112a0565b9050919050565b60006060820190506112f86000830186610c08565b6113056020830185610c08565b6113126040830184610c3c565b949350505050565b60008115159050919050565b61132f8161131a565b811461133a57600080fd5b50565b60008151905061134c81611326565b92915050565b60006020828403121561136857611367610c66565b5b60006113768482850161133d565b91505092915050565b7f746f6b656e207472616e73666572206661696c65642100000000000000000000600082015250565b60006113b5601683610dd3565b91506113c08261137f565b602082019050919050565b600060208201905081810360008301526113e4816113a8565b9050919050565b60006060820190506114006000830186610c08565b61140d6020830185610da9565b61141a6040830184610c3c565b949350505050565b7f4f776e61626c653a2063616c6c6572206973206e6f7420746865206f776e6572600082015250565b6000611458602083610dd3565b915061146382611422565b602082019050919050565b600060208201905081810360008301526114878161144b565b905091905056fea2646970667358221220aac63bd4e957ef3505e4d0767572506a767410313e677d43089dce7a27ea882964736f6c63430008090033",
  "linkReferences": {},
  "deployedLinkReferences": {}
}